:020000040800F2
:1000000000000A20E52100088F2000089720000842
:100010009F200008A7200008AF2000083522000814
:10002000000000000000000000000000B7200008F1
:10003000C520000800000000D3200008E1200008CF
:100040003522000835220008352200083522000834
:100050003522000835220008352200083522000824
:100060003522000835220008352200083522000814
:100070003522000835220008352200083522000804
:10024C0010B5054C237833B9044B13B10448AFF304
:10025C0000800123237010BD280000200000000046
:10026C00CC22000808B5034B1BB103490348AFF37C
:10027C00008008BD000000002C000020CC220008EB
:10028C0080B500AF032000F058F901F0E3FA024604
:10029C000C4B1B6A03F00F030B49CB5C22FA03F3E4
:1002AC000A4A1360042000F08FF90F2000F010F8B8
:1002BC000346002B01D0012302E001F0DBFE0023FA
:1002CC00184680BD000C0244E422000824000020E3
:1002DC0080B584B000AF78600023FB60334B1B7893
:1002EC00002B01D101235CE0314B1B6803F00403AC
:1002FC00042B0CD12F4B1A682C4B1B7819464FF43E
:10030C007A73B3FBF1F3B2FBF3F3FB6037E000F06D
:10031C00B3F9B860BB68022B23D0BB68022B2DD875
:10032C00BB68002B03D0BB68012B0DD026E0214B02
:10033C001A681E4B1B7819464FF4FA53B3FBF1F3B2
:10034C00B2FBF3F3FB601AE0184B1B781A464FF420
:10035C007A73B3FBF2F34FF4FA42B2FBF3F3FB60A4
:10036C000DE0124B1B781A464FF47A73B3FBF2F381
:10037C004FF40042B2FBF3F3FB6000E000BFF868FF
:10038C0000F000F90346002B01D0012309E0002204
:10039C0079684FF0FF3000F0DBF8074A7B68136098
:1003AC00002318461037BD4680BD00BF0400002056
:1003BC0010E000E0240000200000002080B400AF1A
:1003CC00064B1B781A46064B1B681344044A1360F1
:1003DC0000BFBD465DF8047B704700BF04000020E1
:1003EC004400002080B400AF034B1B681846BD4688
:1003FC005DF8047B704700BF4400002080B400AF60
:10040C00054B1B68044A23F00203136000BFBD4672
:10041C005DF8047B704700BF10E000E080B485B04D
:10042C0000AF78607B6803F00703FB600C4BDB6864
:10043C00BB60BA684FF6FF031340BB60FB681A023F
:10044C00BB68134343F0BF6343F40033BB60044AFF
:10045C00BB68D36000BF1437BD465DF8047B7047A2
:10046C0000ED00E080B400AF044BDB681B0A03F026
:10047C0007031846BD465DF8047B704700ED00E0AD
:10048C0080B483B000AF03463960FB80B7F9063007
:10049C00002B0ADB3B68DAB20C49B7F906301201C3
:1004AC00D2B20B4483F800230AE03B68DAB2084965
:1004BC00FB8803F00F03043B1201D2B20B441A76F3
:1004CC0000BF0C37BD465DF8047B704700E100E0CF
:1004DC0000ED00E080B489B000AFF860B9607A60DC
:1004EC00FB6803F00703FB61FB69C3F10703042BF3
:1004FC0028BF0423BB61FB690433062B02D9FB69BB
:10050C00033B00E000237B614FF0FF32BB6902FA32
:10051C0003F3DA43BB681A407B699A404FF0FF3112
:10052C007B6901FA03F3D9437B680B4013431846EC
:10053C002437BD465DF8047B704780B582B000AFB0
:10054C0078607868FFF76AFF00BF0837BD4680BD4A
:10055C0080B586B000AF0346B9607A60FB81FFF7C7
:10056C0081FF78617A68B9687869FFF7B3FF024652
:10057C00B7F90E3011461846FFF782FF00BF183747
:10058C00BD4680BD80B483B000AF78607B68013B12
:10059C00B3F1807F01D301230DE00A4A7B68013B54
:1005AC005360084B00229A60064B1B68054A43F0C7
:1005BC0003031360002318460C37BD465DF8047B1B
:1005CC00704700BF10E000E080B483B000AF7860EB
:1005DC007B68042B44D801A252F823F00B060008C8
:1005EC00290600084B0600086D060008FD050008EA
:1005FC001F4B1B681E4A43F00403136031E01C4B75
:10060C001B681B4A23F0040313601A4BD3F8E43025
:10061C00184A23F00C03C2F8E43022E0144B1B6898
:10062C00134A23F004031360124BD3F8E43023F085
:10063C000C03104A43F00403C2F8E43011E00C4BF5
:10064C001B680B4A23F0040313600A4BD3F8E43005
:10065C0023F00C03074A43F00803C2F8E43000E02F
:10066C0000BF00BF0C37BD465DF8047B704700BF70
:10067C0010E000E0000C024480B483B000AF174BD4
:10068C001B6803F00403002B02D004237B601EE0E4
:10069C00134BD3F8E43003F00C033B603B68082B9E
:1006AC000FD03B68082B0FD83B68002B03D03B685E
:1006BC00042B03D008E000237B6008E001237B605F
:1006CC0005E002237B6002E000237B6000BF7B68B7
:1006DC0018460C37BD465DF8047B704710E000E00F
:1006EC00000C024480B588B000AFF860B9607A6045
:1006FC00314B00225A604FF47A7000F0ADF803468B
:10070C00FB77FB7F002B52D12B4AFB6893602B4B62
:10071C00BB61FB6823F00043022B04D17968B868F5
:10072C0000F0E8F826E0FB68254A934203D0FB680A
:10073C00244A934204D17968B86800F017F919E09B
:10074C00FB6823F00043204A934204D17968B868CF
:10075C0000F058F90EE0FB6823F000431B4A93426B
:10076C0004D17968B86800F067F903E07968B86873
:10077C0000F048F94FF47A7000F06EF80346FB77FE
:10078C00BB691A68FB6823F0304323F00403DB4396
:10079C001A40BB691A60FB680A4A934207D10C4B9A
:1007AC007B617B691B6823F004027B691A60FB7F09
:1007BC0018462037BD4680BD080000202820024086
:1007CC000200001006000010020000400200006051
:1007DC004020024080B483B000AF0023FB710D4B6E
:1007EC009B6A03F00103002B0DD00A4B0A4A5A6096
:1007FC00084B0A4A5A60074B9B6A03F00103002B13
:10080C0001D00123FB71FB7918460C37BD465DF80E
:10081C00047B70470020024023016745AB89EFCD74
:10082C0080B483B000AF0023FB710A4B9B6A094A6A
:10083C0043F001039362074B9B6A03F00103002B07
:10084C0001D10123FB71FB7918460C37BD465DF8CD
:10085C00047B70470020024080B586B000AF786002
:10086C00FFF7C0FD7861204B3B6110E07B68B3F172
:10087C00FF3F0CD0FFF7B6FD02467B69D31A7A68AE
:10088C009A4202D37B68002B01D1032327E03B69FA
:10089C001B6803F00B03002BE8D1144BFB603B6986
:1008AC001B6803F47E03BB60BB68002B0CD0104BA1
:1008BC005A68BB6813430E4A5360BB6803F47E024C
:1008CC00FB681A6001230AE03B691B6803F4803360
:1008DC00002B03D0FB684FF480321A6000231846BB
:1008EC001837BD4680BD00BF20200240302002409A
:1008FC000800002080B48BB000AF7860396004230E
:10090C0087F827307B683B623B68FB61164BBB6109
:10091C00BB691B6843F00202BB691A60EFF31083DA
:10092C003B613B697B6172B600BFFB691A683B6A2D
:10093C001A603B6A04333B62FB690433FB6197F832
:10094C002730013B87F8273097F82730002BECD164
:10095C007B69FB60FB6883F3108800BF00BF2C37FA
:10096C00BD465DF8047B70472820024080B48BB0F4
:10097C0000AF78603960042387F827307B683B62CE
:10098C003B68FB611C4BBB611C4B7B61BB691B68EF
:10099C0043F00202BB691A607B691A68184B9B68AA
:1009AC0003F004031A437B691A60EFF31083FB60B6
:1009BC00FB683B6172B600BFFB691A683B6A1A6040
:1009CC003B6A04333B62FB690433FB6197F82730C5
:1009DC00013B87F8273097F82730002BECD13B6987
:1009EC00BB60BB6883F3108800BF00BF2C37BD46CB
:1009FC005DF8047B704700BF282002404020024075
:100A0C000800002080B485B000AF78603960094BD5
:100A1C00FB60FB681B6843F00202FB681A603A68D3
:100A2C007B68128892B21A8000BF1437BD465DF8FD
:100A3C00047B70472820024080B485B000AF7860FA
:100A4C003960094BFB60FB681B6843F00202FB68D2
:100A5C001A603A687B6812681A6000BF1437BD468A
:100A6C005DF8047B704700BF2820024080B586B03B
:100A7C0000AF786039603A4B1B78012B01D102230F
:100A8C006AE0374B01221A70354B00225A604FF442
:100A9C007A70FFF7E1FE0346FB75FB7D002B57D107
:100AAC007B681B682E4A93602E4BFB607B681B682F
:100ABC0023F0004348F2080293420BD17B685B6839
:100ACC00184600F053F84FF47A70FFF7C5FE034652
:100ADC00FB7533E07B681B68234A934208D100F016
:100AEC00B5F84FF47A70FFF7B7FE0346FB7525E0B7
:100AFC003B684FF0FF321A607B689B683B6115E0E6
:100B0C007B685B681946386900F068F84FF47A70B6
:100B1C00FFF7A2FE0346FB75FB7D002B03D03B6861
:100B2C003A691A600AE03B6901333B617B68DA6819
:100B3C007B689B6813443A699A42E1D3FB681A6854
:100B4C007B681B6823F00043DB431A40FB681A6088
:100B5C00034B00221A70FB7D18461837BD4680BD2A
:100B6C0008000020282002400800008080B485B0D6
:100B7C0000AF7860184BFB607B6803F00303032B1A
:100B8C0008D1FB681B6843F4004343F02003FA6868
:100B9C0013601BE07B6803F00103002B09D0FB689A
:100BAC001B6823F0004323F0280343F02802FB6862
:100BBC001A607B6803F00203002B07D0FB681B68EC
:100BCC0043F0004343F02803FA68136000BF143766
:100BDC00BD465DF8047B70472820024080B485B088
:100BEC0000AF78603960184BFB603B6803F0010381
:100BFC00002B11D0FB681B6823F0004323F4FE5339
:100C0C00FA681360FB681A687B689B01134343F016
:100C1C002402FB681A6010E0FB681B6823F4FE5288
:100C2C00FB681A60FB681A687B689B01134343F0EE
:100C3C00004343F02403FA68136000BF1437BD4629
:100C4C005DF8047B704700BF2820024080B483B05D
:100C5C0000AF074B7B607B681B6843F008027B6826
:100C6C001A6000BF0C37BD465DF8047B704700BFAF
:100C7C004020024080B588B000AF78607B68002BC4
:100C8C0002D1012300F028BC944BDB6903F018035C
:100C9C00FB61924B9B6A03F00303BB617B681B688F
:100CAC0003F01003002B5BD0FB69082B05D0FB690C
:100CBC00182B14D1BB69022B11D17B68DB69002B7B
:100CCC0002D1012300F008BC844B9B6923F47C12F5
:100CDC007B681B6A1B04814913438B6140E07B6872
:100CEC00DB69002B23D07D4B1B687C4A43F480735B
:100CFC001360FFF777FB786108E0FFF773FB0246A0
:100D0C007B69D31A022B01D90323E5E3734B1B68D0
:100D1C0003F40073002BF0D0704B9B6923F47C120E
:100D2C007B681B6A1B046D4913438B6118E06B4B8A
:100D3C001B686A4A23F480731360FFF753FB7861D6
:100D4C0008E0FFF74FFB02467B69D31A022B01D94F
:100D5C000323C1E3614B1B6803F40073002BF0D138
:100D6C007B681B6803F00103002B00F0A080FB697B
:100D7C00102B05D0FB69182B09D1BB69032B06D1AD
:100D8C007B685B68002B40F092800123A4E37B68B6
:100D9C005B68B3F5803F06D1504B1B684F4A43F458
:100DAC008033136058E07B685B68002B12D14B4B8F
:100DBC001B684A4A23F480331360484B1B68474A2C
:100DCC0023F480131360454B1B68444A23F480239F
:100DDC00136041E07B685B68B3F5A02F12D13F4BE9
:100DEC001B683E4A43F4802313603C4B1B683B4A10
:100DFC0023F480131360394B1B68384A43F4803357
:100E0C00136029E07B685B68B3F5A81F12D1334BE4
:100E1C001B68324A43F480231360304B1B682F4A03
:100E2C0043F4801313602D4B1B682C4A43F480331E
:100E3C00136011E0294B1B68284A23F4803313609C
:100E4C00264B1B68254A23F480231360234B1B6815
:100E5C00224A23F4801313607B685B68002B13D049
:100E6C00FFF7C0FA786108E0FFF7BCFA02467B692D
:100E7C00D31A642B01D903232EE3184B1B6803F4FC
:100E8C000033002BF0D012E0FFF7ACFA786108E0E9
:100E9C00FFF7A8FA02467B69D31A642B01D9032306
:100EAC001AE30E4B1B6803F40033002BF0D17B6864
:100EBC001B6803F00203002B00F09A80FB69002BE7
:100ECC0005D0FB69182B49D1BB69012B46D17B6836
:100EDC00DB68002B04D10123FEE200BF000C0244AE
:100EEC00FB69002B1CD19A4B1B6803F018027B6822
:100EFC001B699A4214D0964B1B6823F018027B682E
:100F0C001B69934913430B6000F0D0FD914B1B6898
:100F1C001846FFF7DDF90346002B01D00123DBE275
:100F2C00FFF760FA786108E0FFF75CFA02467B692C
:100F3C00D31A022B01D90323CEE2854B1B6803F095
:100F4C000203002BF0D0824B1B6923F4FE027B685A
:100F5C005B691B047E4913430B6149E07B68DB68CA
:100F6C00002B2CD07A4B1B6823F018027B681B6972
:100F7C00774913430B60764B1B68754A43F00103AA
:100F8C001360FFF72FFA786108E0FFF72BFA02469F
:100F9C007B69D31A022B01D903239DE26C4B1B688E
:100FAC0003F00203002BF0D0694B1B6923F4FE0203
:100FBC007B685B691B04664913430B6118E0644B47
:100FCC001B68634A23F001031360FFF70BFA786187
:100FDC0008E0FFF707FA02467B69D31A022B01D906
:100FEC00032379E25A4B1B6803F00203002BF0D168
:100FFC007B681B6803F00803002B3CD07B689B6963
:10100C00002B1CD0524BD3F8F030514A43F0806384
:10101C00C2F8F030FFF7E6F9786108E0FFF7E2F983
:10102C0002467B69D31A022B01D9032354E2484BA5
:10103C00D3F8F03003F00063002BEFD01BE0444BEF
:10104C00D3F8F030424A23F08063C2F8F030FFF757
:10105C00C9F9786108E0FFF7C5F902467B69D31A34
:10106C00022B01D9032337E2394BD3F8F03003F0CC
:10107C000063002BEFD17B681B6803F00403002B8B
:10108C0000F0D280344B5B6A03F00103002B18D1C3
:10109C00314B5B6A304A43F001035362FFF7A2F90C
:1010AC00786108E0FFF79EF902467B69D31A022BA0
:1010BC0001D9032310E2284B5B6A03F00103002BD8
:1010CC00F0D07B689B68012B08D1214BD3F8F03012
:1010DC001F4A43F00103C2F8F03074E07B689B6850
:1010EC00002B18D11A4BD3F8F030194A23F0010316
:1010FC00C2F8F030164BD3F8F030154A23F08003C9
:10110C00C2F8F030124BD3F8F030114A23F004033C
:10111C00C2F8F03057E07B689B68052B1ED10C4B56
:10112C00D3F8F0300A4A43F00403C2F8F030084B0D
:10113C00D3F8F030064A23F08003C2F8F030044BA9
:10114C00D3F8F030024A43F00103C2F8F0303AE031
:10115C00000C024400000020000802447B689B68DD
:10116C00852B18D1A24BD3F8F030A14A43F00403DD
:10117C00C2F8F0309E4BD3F8F0309D4A43F0800318
:10118C00C2F8F0309A4BD3F8F030994A43F001038F
:10119C00C2F8F03017E0964BD3F8F030944A23F0B5
:1011AC000103C2F8F030924BD3F8F030904A23F0A0
:1011BC000403C2F8F0308E4BD3F8F0308C4A23F095
:1011CC008003C2F8F0307B689B68002B16D0FFF7C9
:1011DC0009F978610AE0FFF705F902467B69D31A31
:1011EC0041F28832934201D9032375E1804BD3F845
:1011FC00F03003F00203002BEDD015E0FFF7F2F80E
:10120C0078610AE0FFF7EEF802467B69D31A41F2E7
:10121C008832934201D903235EE1754BD3F8F03049
:10122C0003F00203002BEDD17B681B6803F0200355
:10123C00002B36D07B685B6A002B19D06C4B1B687B
:10124C006B4A43F480531360FFF7CCF8786108E0E5
:10125C00FFF7C8F802467B69D31A022B01D9032386
:10126C003AE1634B1B6803F40053002BF0D018E0F9
:10127C005F4B1B685E4A23F480531360FFF7B2F890
:10128C00786108E0FFF7AEF802467B69D31A022BAF
:10129C0001D9032320E1564B1B6803F40053002BA8
:1012AC00F0D17B689B6A002B00F01581FB69182B31
:1012BC0000F0AF807B689B6A022B40F086804C4B21
:1012CC001B684B4A23F080731360FFF78BF878612F
:1012DC0008E0FFF787F802467B69D31A022B01D985
:1012EC000323F9E0424B1B6803F00073002BF0D191
:1012FC003F4B9B6A23F47C5323F003037A68D16A37
:10130C007A68126B12020A43394913438B627B6869
:10131C005B6B013BC3F308027B689B6B013B5B027D
:10132C009BB21A437B68DB6B013B1B0403F4FE038B
:10133C001A437B681B6C013B1B0603F0FE432C49D4
:10134C0013434B632A4B9B6A294A23F01003936285
:10135C007B68DB6C264ADB009363254B9B6A244A33
:10136C0043F010039362224B9B6A23F00C027B68C0
:10137C005B6C1F4913438B621D4B9B6A23F020024D
:10138C007B689B6C1A4913438B62194B9B6A184AF6
:10139C0043F480339362164B1B68154A43F08073F9
:1013AC001360FFF71FF8786108E0FFF71BF802469F
:1013BC007B69D31A022B01D903238DE00C4B1B68DC
:1013CC0003F00073002BF0D085E0094B1B68084A32
:1013DC0023F080731360FFF705F878610AE0FFF7DC
:1013EC0001F802467B69D31A022B03D9032373E05D
:1013FC00000C02443A4B1B6803F00073002BEED137
:10140C00374B9B6A364A23F4E02323F003039362A1
:10141C0061E0334B9B6A3B61314B5B6BFB607B68E0
:10142C009B6A012B31D03B6903F003027B68DB6ABA
:10143C009A422AD13B691B0A03F03F027B681B6B63
:10144C009A4222D1FB68C3F308027B685B6B013BB9
:10145C009A421AD1FB685B0A03F07F027B689B6B94
:10146C00013B9A4211D1FB681B0C03F07F027B6895
:10147C00DB6B013B9A4208D1FB681B0E03F07F0229
:10148C007B681B6C013B9A4201D0012324E0144B76
:10149C009B6BDB08C3F30C027B68DB6C9A421AD0A3
:1014AC000F4B9B6A0E4A23F010039362FEF79AFFD0
:1014BC00786100BFFEF796FF02467B699342F9D034
:1014CC007B68DB6C064ADB009363054B9B6A044A22
:1014DC0043F010039362002318462037BD4680BDAD
:1014EC00000C024480B584B000AF786039607B6832
:1014FC00002B01D101239EE1834B1B6803F00F03EA
:10150C003A689A4210D9804B1B6823F00F027E492F
:10151C003B6813430B607C4B1B6803F00F033A686A
:10152C009A4201D0012386E17B681B6803F010030B
:10153C00002B12D07B685A69744B1B6A1B0A03F090
:10154C0070039A4209D9714B1B6A23F4E0427B6801
:10155C005B691B026D4913430B627B681B6803F0CC
:10156C000803002B12D07B681A69684B1B6A1B0995
:10157C0003F070039A4209D9644B1B6A23F4E062AE
:10158C007B681B691B01614913430B627B681B68F9
:10159C0003F00403002B10D07B68DA685B4B1B6AEA
:1015AC0003F070039A4208D9584B1B6A23F070025F
:1015BC007B68DB68554913430B627B681B6803F03F
:1015CC000203002B10D07B689A68504B1B6A03F007
:1015DC000F039A4208D94D4B1B6A23F00F027B680C
:1015EC009B684A4913430B627B681B6803F0010339
:1015FC00002B00F093807B685B68032B07D1434B77
:10160C001B6803F00073002B21D1012313E17B68CD
:10161C005B68022B07D13D4B1B6803F40033002B96
:10162C0015D1012307E17B685B68012B07D1374B90
:10163C001B6803F40073002B09D10123FBE0334B2F
:10164C001B6803F00203002B01D10123F3E02F4BA5
:10165C00DB6923F003027B685B682C491343CB6185
:10166C00FEF7C0FEF8607B685B68032B12D10AE0C2
:10167C00FEF7B8FE0246FB68D31A41F28832934259
:10168C0001D90323D7E0214BDB6903F01803182B96
:10169C00EED143E07B685B68022B12D10AE0FEF7C7
:1016AC00A1FE0246FB68D31A41F28832934201D95B
:1016BC000323C0E0154BDB6903F01803102BEED1AC
:1016CC002CE07B685B68012B22D10AE0FEF78AFED6
:1016DC000246FB68D31A41F28832934201D90323A4
:1016EC00A9E00A4BDB6903F01803082BEED115E0D7
:1016FC00FEF778FE0246FB68D31A41F28832934219
:10170C0006D9032397E000BF00200240000C0244DE
:10171C004B4BDB6903F01803002BE9D17B681B688A
:10172C0003F00203002B10D07B689A68444B1B6AB1
:10173C0003F00F039A4208D2414B1B6A23F00F02AD
:10174C007B689B683E4913430B623E4B1B6803F05E
:10175C000F033A689A4210D23A4B1B6823F00F02DF
:10176C0038493B6813430B60364B1B6803F00F037F
:10177C003A689A4201D001235DE07B681B6803F054
:10178C000403002B10D07B68DA682D4B1B6A03F026
:10179C0070039A4208D22A4B1B6A23F070027B68B2
:1017AC00DB68274913430B627B681B6803F0080353
:1017BC00002B12D07B681A69214B1B6A1B0903F0A2
:1017CC0070039A4209D21E4B1B6A23F4E0627B68B9
:1017DC001B691B011A4913430B627B681B6803F0DE
:1017EC001003002B12D07B685A69154B1B6A1B0A1D
:1017FC0003F070039A4209D2114B1B6A23F4E042A6
:10180C007B685B691B020E4913430B6200F022F8E4
:10181C0002460B4B1B6A03F00F030B49CB5C22FAFD
:10182C0003F30A4A13600A4B1B681846FEF750FD77
:10183C000346FB72FB7A18461037BD4680BD00BFCD
:10184C00000C024400200240E42200082400002086
:10185C000000002080B489B000AF8C4BDB6903F032
:10186C001803082B02D18A4BFB6107E1874BDB691C
:10187C0003F01803002B12D1844B1B6803F02003D8
:10188C00002B09D0814B1B68DB0803F00303814A52
:10189C0022FA03F3FB61F1E07E4BFB61EEE07B4B44
:1018AC00DB6903F01803102B02D17B4BFB61E5E0E5
:1018BC00764BDB6903F01803182B40F0DD80734B7B
:1018CC009B6A03F003037B61704B9B6A1B0A03F05A
:1018DC003F033B616D4B9B6A1B0903F00103FB60EB
:1018EC006A4B9B6BDB08C3F30C03FA6802FB03F334
:1018FC0007EE903AF8EE677AC7ED027A3B69002B57
:10190C0000F0B7807B69012B03D07B69032B56D089
:10191C0077E05E4B1B6803F02003002B2DD05B4B54
:10192C001B68DB0803F003035A4A22FA03F37B60BB
:10193C007B6807EE903AF8EE676A3B6907EE903ADF
:10194C00F8EE677A86EEA77A504B5B6BC3F308030D
:10195C0007EE903AF8EE676A97ED026ADFED4F5AA0
:10196C00C6EE257A76EEA77AF7EE006A77EEA67ABF
:10197C0067EE277AC7ED067A65E03B6907EE903A89
:10198C00F8EE677ADFED466A86EEA77A3F4B5B6B23
:10199C00C3F3080307EE903AF8EE676A97ED026A14
:1019AC00DFED3E5AC6EE257A76EEA77AF7EE006AA0
:1019BC0077EEA67A67EE277AC7ED067A43E03B69A5
:1019CC0007EE903AF8EE677ADFED366A86EEA77A84
:1019DC002E4B5B6BC3F3080307EE903AF8EE676A85
:1019EC0097ED026ADFED2D5AC6EE257A76EEA77AD0
:1019FC00F7EE006A77EEA67A67EE277AC7ED067ADD
:101A0C0021E03B6907EE903AF8EE677ADFED266A43
:101A1C0086EEA77A1D4B5B6BC3F3080307EE903A77
:101A2C00F8EE676A97ED026ADFED1C5AC6EE257A6E
:101A3C0076EEA77AF7EE006A77EEA67A67EE277A4B
:101A4C00C7ED067A00BF114B5B6B5B0A03F07F039B
:101A5C0001333B603B6807EE903AB8EE677AD7EDFE
:101A6C00066AC6EE877AFCEEE77A17EE903AFB61CF
:101A7C0004E00023FB6101E0064BFB61FB691846A7
:101A8C002437BD465DF8047B704700BF000C024450
:101A9C0000093D000090D00340787D010000004615
:101AAC000024744C20BCBE4B0024744A80B500AF9B
:101ABC00FFF7D0FE0246084B1B6A03F00F030749E1
:101ACC00CB5C03F01F0322FA03F3054A1360044BAB
:101ADC001B68184680BD00BF000C0244E4220008BD
:101AEC002400002080B582B000AF1E4B1B681E4A3C
:101AFC00934232D1FEF782FC1C4B1B6803F00F03A0
:101B0C007B601A4B1B6823F00F02184B1B6803F009
:101B1C000F030233154913430B60144B1B68144B12
:101B2C001B68144A1360134B1B681A46124B1A603D
:101B3C000C4B1B683B603B6883F3088800BF0B4B66
:101B4C001B6823F00F0209497B6813430B60074B9A
:101B5C001B68094B1B68984700E000BF0837BD465F
:101B6C0080BD00BF0000010800000A2000200240D8
:101B7C00040001084C0000204800002080B485B00F
:101B8C0000AF0023FB73224B1B6803F00F03BB60F9
:101B9C001F4B1B6823F00F021D4B1B6803F00F0338
:101BAC0002331B4913430B60194B1B68194B1B88E1
:101BBC004FF6FF7293420DD0164B1B88002B06D0AC
:101BCC00144B1B889B025B0803F1006304E04FF08D
:101BDC00016301E04FF001637B607B681B683B6035
:101BEC003B68B3F1FF3F14BF01230023FB73084B89
:101BFC001B6823F00F020649BB6813430B60044BB0
:101C0C001B68FB7B18461437BD465DF8047B704798
:101C1C00002002400CF8FF0880B588B000AF6023AC
:101C2C00BB6100237B6100233B610823FB60012324
:101C3C00BB6000237B6002233B600023FB6162E0FE
:101C4C00384B1B884FF6FF7293420DD0354B1B88D7
:101C5C00002B06D0334B1B889B025B0803F10063FF
:101C6C0004E04FF0016301E04FF00163FA695203A5
:101C7C0013443B61FB6903F5804308335B037B61D1
:101C8C004FF400523969284800F052F84FF40052D2
:101C9C007969264800F04CF8FA68FB6913441A4637
:101CAC000121B86800F00AF9034683F00103DBB2A6
:101CBC00002B2DD14FF4005279691B4800F068F8C5
:101CCC00034683F00103DBB2002B23D17A68FB6956
:101CDC0013441A460121386800F0F0F8034683F0EB
:101CEC000103DBB2002B17D14FF4005239690F48B6
:101CFC0000F04EF8034683F00103DBB2002B0DD14C
:101D0C00FB690133FB61FA69BB699A4298D306E01F
:101D1C0000BF04E000BF02E000BF00E000BF2037BE
:101D2C00BD4680BD0CF8FF0850200020500000205C
:101D3C0080B586B000AFF860B9607A60134B1B6851
:101D4C0003F00F037B61114B1B6823F00F020F4B49
:101D5C001B6803F00F0302330C4913430B600B4B4E
:101D6C001B68BB683B617A683969F86800F09AFABD
:101D7C00064B1B6823F00F0204497B6913430B606D
:101D8C00024B1B6800BF1837BD4680BD00200240C7
:101D9C0090B58DB000AFF860B9607A60002387F819
:101DAC002F300023BB6207F1100300221A605A6027
:101DBC009A60DA607B681B097B627B6803F00F0317
:101DCC003B62FEF707FD0023BB622FE0FB6807F1C7
:101DDC001004186859689A68DB680FC407F110037F
:101DEC001A46B9680220FEF77DFC034687F82F30AF
:101DFC0097F82F30002B0CD1BB6807F11001102283
:101E0C00184600F012FA0346002B02D0012387F883
:101E1C002F3097F82F30002B0DD1BB681033BB60DF
:101E2C00FB681033FB60BB6A0133BB62BA6A7B6A26
:101E3C009A42CBD300E000BF97F82F30002B2FD164
:101E4C003B6A002B2CD007F110033A6AF96818464C
:101E5C0000F028FA07F110023B6AD0183B6AC3F174
:101E6C0010031A46FF2100F0F0F907F110031A468F
:101E7C00B9680220FEF736FC034687F82F3097F836
:101E8C002F30002B0CD1BB6807F110011022184623
:101E9C0000F0CBF90346002B02D0012387F82F303A
:101EAC00FEF7BEFC97F82F30002B0CBF012300234C
:101EBC00DBB218463437BD4690BD000080B58CB0FF
:101ECC0000AFF860B9607A60012387F82F30234B9C
:101EDC001B6803F00F03BB62204B1B6823F00F023F
:101EEC001E4B1B6803F00F0302331C4913430B609A
:101EFC001A4B1B68FEF76EFC0346002B1AD100230D
:101F0C007B6204237B61FB68BB61BB683B627B68C3
:101F1C00FB6107F1240207F1140311461846FEF782
:101F2C00A5FD0346002B02D0002387F82F30FEF7C7
:101F3C0077FC02E0002387F82F30084B1B6823F056
:101F4C000F020649BB6A13430B60044B1B6897F8DE
:101F5C002F3018463037BD4680BD00BF00200240F0
:101F6C0080B500AFFEF78CF900F00CF8FFF706FE19
:101F7C000346002B01D0FFF74FFEFFF7B3FD00BF68
:101F8C00FDE7000080B59CB000AF07F120035022A4
:101F9C000021184600F059F907F1080300221A60D5
:101FAC005A609A60DA601A615A612D4B1B692C4A8F
:101FBC0043F0300313612A4B1B6903F030037B6041
:101FCC007B6800BF264B5B6903F00803082BF9D133
:101FDC0010233B624FF48073FB6320233B6402238A
:101FEC00BB640223FB6401233B657D237B650223D9
:101FFC00BB650223FB6502233B6608237B6600233B
:10200C00BB660023FB6607F120031846FEF732FE81
:10201C000346002B01D000F027F81F23BB600323DD
:10202C00FB6000233B6100237B610023BB61002329
:10203C00FB6107F1080305211846FFF753FA034625
:10204C00002B01D000F010F8064B1B6823F0300376
:10205C00044A43F02003136000BF7037BD4680BDB7
:10206C00000802440020024080B400AF72B600BFEA
:10207C0000BFFDE780B400AF00BFBD465DF8047B38
:10208C00704780B400AF00BFFDE780B400AF00BF65
:10209C00FDE780B400AF00BFFDE780B400AF00BF28
:1020AC00FDE780B400AF00BFFDE780B400AF00BF18
:1020BC00BD465DF8047B704780B400AF00BFBD46E1
:1020CC005DF8047B704780B400AF00BFBD465DF87F
:1020DC00047B704780B500AFFEF770F900BF80BD80
:1020EC0080B483B000AF354BD3F88830334A43F417
:1020FC007003C2F88830324B01221A60304B002238
:10210C00DA612F4B00221A622D4B1A682C492D4B89
:10211C0013400B602A4B00229A62294B0022DA6290
:10212C00274B00221A63264B274A5A63244B002262
:10213C009A63234B244ADA63214B00221A64204B06
:10214C00214A5A641E4B00229A641D4B1B681C4A80
:10215C0023F4802313601A4B00221A65174B4FF09F
:10216C0000629A60194B9B6903F060437B607B684B
:10217C00B3F1604F03D07B68B3F1404F17D1134BD1
:10218C00DB6903F00103002B05D0104B104ADA6019
:10219C000E4B104ADA600D4BDB690C4A43F002031C
:1021AC00D3610A4BDB69094A43F00103D36100BFD9
:1021BC000C37BD465DF8047B704700BF00ED00E0B6
:1021CC00000C0244E3EAE2EA800201010020024032
:1021DC003B2A19087F6E5D4C0D488546FFF780FF42
:1021EC000C480D490D4A002302E0D458C450043366
:1021FC00C4188C42F9D30A4A0A4C002301E013603C
:10220C000432A242FBD300F029F8FFF7A9FEFEE747
:10221C0000000A200000002028000020FC220008FA
:10222C002800002050400020FEE70139024410B580
:10223C00904201D1002005E0037811F8014FA34230
:10224C0001D0181B10BD0130F2E702440346934243
:10225C0000D1704703F8011BF9E7000070B50D4D74
:10226C0000260D4C641BA410A64209D10B4D002670
:10227C000B4C00F025F8641BA410A64205D170BDD0
:10228C0055F8043B01369847EEE755F8043B013608
:10229C009847F2E7F4220008F4220008F422000820
:1022AC00F82200080A44431E914200D1704710B531
:1022BC0011F8014B914203F8014FF9D110BD000008
:1022CC00F8B500BFF8BC08BC9E467047F8B500BF17
:0822DC00F8BC08BC9E467047E7
:1022E40000000000000000000102030406070809C2
:0422F400710200086B
:0422F8004D0200088B
:1022FC0010000000010000000000000000000000C1
:10230C0000000000000000000100000000000000C0
:08231C00000000000090D00356
:04000005080021E5E9
:00000001FF
